:100000000C945C000C946E000C946E000C946E00CA
:100010000C946E000C946E000C946E000C946E00A8
:100020000C946E000C946E000C946E000C946E0098
:100030000C946E000C946E000C946E000C946E0088
:100040000C94AB010C946E000C946E000C946E003A
:100050000C946E000C946E000C946E000C946E0068
:100060000C946E000C946E00000000080002010069
:100070000003040700000000000000000000000072
:10008000250028002B0000000000240027002A0083
:10009000040404040404040402020202020203032E
:1000A0000303030301020408102040800102040836
:1000B000102001020408102011241FBECFEFD8E049
:1000C000DEBFCDBF21E0A0E0B1E001C01D92A930AC
:1000D000B207E1F70E94F5010C9437030C9400007D
:1000E00090E0FC01EC55FF4F2491FC01E057FF4FDD
:1000F0008491882399F090E0880F991FFC01EA57BA
:10010000FF4FA591B491FC01E458FF4F8591949164
:100110008FB7F894EC91E22BEC938FBF089590E0A9
:10012000FC01E859FF4F2491FC01EC55FF4F34913D
:10013000FC01E057FF4FE491EE2309F43CC0222379
:1001400039F1233091F038F42130A9F0223001F553
:1001500084B58F7D12C0273091F02830A1F0243073
:10016000B9F4809180008F7D03C0809180008F77EB
:10017000809380000DC084B58F7784BD09C08091C5
:10018000B0008F7703C08091B0008F7D8093B00066
:10019000F0E0EE0FFF1FE458FF4FA591B4919FB719
:1001A000F894611104C08C913095382302C0EC9111
:1001B0003E2B3C939FBF08953FB7F8948091050173
:1001C00090910601A0910701B091080126B5A89B66
:1001D00005C02F3F19F00196A11DB11D3FBFBA2FD9
:1001E000A92F982F8827820F911DA11DB11DBC0139
:1001F000CD0142E0660F771F881F991F4A95D1F7FE
:1002000008958F929F92AF92BF92CF92DF92EF921A
:10021000FF926B017C010E94DC004B015C01C11468
:10022000D104E104F104F1F00E94DC00DC01CB0117
:1002300088199909AA09BB09883E9340A105B1050F
:1002400070F321E0C21AD108E108F10888EE880EA7
:1002500083E0981EA11CB11CC114D104E104F10477
:1002600019F7DDCFFF90EF90DF90CF90BF90AF9068
:100270009F908F90089560E08DE00E948F0061E074
:100280008CE00E948F0061E08BE00E948F0061E0B3
:100290008AE00C948F0060E08DE00E948F0061E0A6
:1002A0008CE00E948F0061E08BE00E948F0060E094
:1002B0008AE00C948F0060E08DE00E948F0061E086
:1002C0008CE00E948F0060E08BE00E948F0061E074
:1002D0008AE00C948F0060E08DE00E948F0061E066
:1002E0008CE00E948F0060E08BE00E948F0060E055
:1002F0008AE00C948F0060E08DE00E948F0060E047
:100300008CE00E948F0061E08BE00E948F0061E032
:100310008AE00C948F0060E08DE00E948F0060E026
:100320008CE00E948F0061E08BE00E948F0060E013
:100330008AE00C948F0060E08DE00E948F0060E006
:100340008CE00E948F0060E08BE00E948F0061E0F3
:100350008AE00C948F001F920F920FB60F92112417
:100360002F933F938F939F93AF93BF9380910101FE
:1003700090910201A0910301B0910401309100011C
:1003800023E0230F2D3720F40196A11DB11D05C0D8
:1003900026E8230F0296A11DB11D20930001809332
:1003A000010190930201A0930301B0930401809195
:1003B000050190910601A0910701B09108010196F5
:1003C000A11DB11D8093050190930601A093070123
:1003D000B0930801BF91AF919F918F913F912F9161
:1003E0000F900FBE0F901F901895789484B582607F
:1003F00084BD84B5816084BD85B5826085BD85B5C9
:10040000816085BD80916E00816080936E00109246
:1004100081008091810082608093810080918100C1
:100420008160809381008091800081608093800052
:100430008091B10084608093B1008091B0008160B0
:100440008093B00080917A00846080937A008091DC
:100450007A00826080937A0080917A008160809334
:100460007A0080917A00806880937A001092C100AF
:100470008DE00E9470008CE00E9470008BE00E9472
:1004800070008AE00E94700089E00E94700088E09D
:100490000E94700087E00E94700086E00E94700059
:1004A00085E00E947000C0E0D0E061E089E00E9439
:1004B0008F0061E08DE00E948F0060E08CE00E9480
:1004C0008F0060E08BE00E948F0061E08AE00E9474
:1004D0008F006CE271E080E090E00E94010161E039
:1004E0008DE00E948F0060E08CE00E948F0060E051
:1004F0008BE00E948F0060E08AE00E948F006CE237
:1005000071E080E090E00E9401010E943B016CE2FA
:1005100071E080E090E00E9401010E944B016CE2DA
:1005200071E080E090E00E9401010E945B016CE2BA
:1005300071E080E090E00E9401010E946B016CE29A
:1005400071E080E090E00E9401010E947B016CE27A
:1005500071E080E090E00E9401010E948B016CE25A
:1005600071E080E090E00E9401010E949B016CE23A
:1005700071E080E090E00E94010160E089E00E946B
:100580008F0061E088E00E948F000E948B0164E68A
:1005900070E080E090E00E9401010E949B0164E60F
:1005A00070E080E090E00E94010160E088E00E943D
:1005B0008F0061E087E00E948F000E943B016CE2A7
:1005C00071E080E090E00E9401010E944B016CE22A
:1005D00071E080E090E00E9401010E945B016CE20A
:1005E00071E080E090E00E9401010E946B016CE2EA
:1005F00071E080E090E00E9401010E947B016CE2CA
:1006000071E080E090E00E9401010E948B016CE2A9
:1006100071E080E090E00E9401010E949B016CE289
:1006200071E080E090E00E94010160E087E00E94BC
:100630008F0061E088E00E948F000E948B0164E6D9
:1006400070E080E090E00E9401010E949B0164E65E
:1006500070E080E090E00E94010160E088E00E948C
:100660008F00209709F421CF0E9400001ECFF8943C
:02067000FFCFBA
:00000001FF
